:100000000C942A000C943C000C943C000C943C0092
:100010000C943C000C943C000C943C000C943C0070
:100020000C943C000C943C000C943C000C943C0060
:100030000C943C000C943C000C943C000C943C0050
:100040000C943C000C943C000C943C000C943C0040
:100050000C943C0011241FBECFE5D8E0DEBFCDBF1D
:1000600020E0A0E6B0E001C01D92A136B207E1F7A2
:100070000E94AE030C9401040C940000CF9360E046
:1000800081E00E94CE01C82F60E081E00E94CE0195
:100090008111FACF2FEF89EF90E0215080409040FE
:1000A000E1F700C000008C2FCF910895CF9366E058
:1000B00083E00E94CE01C82F66E083E00E94CE015B
:1000C0008111FACF2FEF89EF90E0215080409040CE
:1000D000E1F700C000008C2FCF910895CF9362E02C
:1000E00083E00E94CE01C82F62E083E00E94CE012F
:1000F0008111FACF2FEF89EF90E02150804090409E
:10010000E1F700C000008C2FCF910895442321F027
:100110004F3F09F44BC008956830C0F5813091F02D
:1001200028F08230D9F0833029F108952AB381E094
:1001300090E002C0880F991F6A95E2F780958223AC
:100140008ABB089527B381E090E002C0880F991F11
:100150006A95E2F78095822387BB089524B381E0F6
:1001600090E002C0880F991F6A95E2F7809582237C
:1001700084BB089521B381E090E002C0880F991FED
:100180006A95E2F78095822381BB0895813041F022
:1001900028F0823039F0833039F008951ABA089582
:1001A00017BA089514BA089511BA08956830A0F5E1
:1001B000813089F028F08230C9F0833011F1089540
:1001C0002AB381E090E002C0880F991F6A95E2F798
:1001D000822B8ABB089527B381E090E002C0880F8C
:1001E000991F6A95E2F7822B87BB089524B381E0BB
:1001F00090E002C0880F991F6A95E2F7822B84BBBA
:10020000089521B381E090E002C0880F991F6A959C
:10021000E2F7822B81BB0895813049F028F08230CB
:1002200049F0833051F008958FEF8ABB08958FEF26
:1002300087BB08958FEF84BB08958FEF81BB08952E
:10024000CF93DF93C82FD62F442321F04F3F09F4DB
:1002500052C0A1C06830D8F54FEF0E948600C1306F
:1002600091F028F0C230D9F0C33029F194C02BB3FB
:1002700081E090E002C0880F991FDA95E2F780953F
:1002800082238BBB88C028B381E090E002C0880F36
:10029000991FDA95E2F78095822388BB7CC025B34D
:1002A00081E090E002C0880F991FDA95E2F780950F
:1002B000822385BB70C022B381E090E002C0880F2A
:1002C000991FDA95E2F78095822382BB64C04FEFD5
:1002D00068E00E948600C13041F028F0C23039F059
:1002E000C33039F058C01BBA56C018BA54C015BA3A
:1002F00052C012BA50C06830B8F54FEF0E94860065
:10030000C13089F028F0C230C9F0C33011F143C0C8
:100310002BB381E090E002C0880F991FDA95E2F7D5
:10032000822B8BBB38C028B381E090E002C0880FDD
:10033000991FDA95E2F7822B88BB2DC025B381E0A7
:1003400090E002C0880F991FDA95E2F7822B85BBF7
:1003500022C022B381E090E002C0880F991FDA9595
:10036000E2F7822B82BB17C04FEF68E00E94860045
:10037000C13049F028F0C23049F0C33051F00BC011
:100380008FEF8BBB08C08FEF88BB05C08FEF85BB9D
:1003900002C08FEF82BBDF91CF910895CF93DF939F
:1003A000C82FD62F683078F540E00E948600C13013
:1003B00079F028F0C230A9F0C330E1F038C089B339
:1003C00090E002C095958795DA95E2F7817032C08A
:1003D00086B390E002C095958795DA95E2F7817033
:1003E00029C083B390E002C095958795DA95E2F72E
:1003F000817020C080B390E002C095958795DA9512
:10040000E2F7817017C040E068E00E948600C130CA
:1004100041F028F0C23039F0C33039F00AC089B356
:1004200009C086B307C083B305C080B303C080E0B2
:1004300001C080E0DF91CF910895CF93C82F40E0B5
:1004400061E081E00E94200140E062E081E00E94E2
:10045000200140E063E081E00E9420018BB39C2FEB
:10046000907F8F70892B8BBB4FEF63E081E00E9400
:1004700020018FE99FE00197F1F700C0000040E004
:1004800063E081E00E9420012BB330E1C39FC001F3
:100490001124922F9F70892B8BBB4FEF63E081E07B
:1004A0000E9420018FE99FE00197F1F700C0000052
:1004B00040E063E081E00E9420018FE19EE401972B
:1004C000F1F700C00000CF9108954FEF61E081E0A7
:1004D0000E9486004FEF62E081E00E9486004FEFAD
:1004E00063E081E00E9486004FEF64E080E00E94BC
:1004F00086004FEF65E080E00E9486004FEF66E0E7
:1005000080E00E9486004FEF67E080E00E94860056
:100510002FEF81EE94E0215080409040E1F700C041
:10052000000083E30E941D0282E30E941D0288E214
:100530000E941D0281E00E941D0282E00E941D02B5
:1005400086E00E941D028CE00E941D020895CF9358
:10055000C82F4FEF61E081E00E94200140E062E09F
:1005600081E00E94200140E063E081E00E942001E0
:100570008BB39C2F907F8F70892B8BBB4FEF63E0E9
:1005800081E00E9420018FE99FE00197F1F700C010
:10059000000040E063E081E00E9420012BB330E1E5
:1005A000C39FC0011124922F9F70892B8BBB4FEFEB
:1005B00063E081E00E9420018FE99FE00197F1F75D
:1005C00000C0000040E063E081E00E9420018FE174
:1005D0009EE40197F1F700C00000CF9108952F929B
:1005E0003F924F925F926F927F928F929F92AF92C3
:1005F000BF92CF92DF92EF92FF920F931F93CF9310
:10060000DF9300D000D01F92CDB7DEB72B013C01A5
:10061000672B682B692B09F485C0812C912C540120
:100620008394C12CD12C7601CC0CDD1CEE1CFF1C5C
:10063000D701C601880F991FAA1FBB1F880F991FDA
:10064000AA1FBB1FC80ED91EEA1EFB1EC301B201A2
:100650002AE030E040E050E00E94DF03C60ED71EE3
:10066000E81EF91EC114D104E104F10491F4880CD0
:10067000991CAA1CBB1CD501C401880F991FAA1F75
:10068000BB1F880F991FAA1FBB1F880E991EAA1E89
:10069000BB1EC301B2012AE030E040E050E00E94FE
:1006A000DF0329013A01232B242B252B09F0BCCF92
:1006B000C114D104E104F104A9F1412C512C3201FF
:1006C000282C9982AA82BB82312CC701B6012AE06C
:1006D00030E040E050E00E94DF03022F132F4D83F3
:1006E0005C8380E3860F0E94A702C02ED12EED808E
:1006F000FC80C114D104E104F10479F48AE0881685
:100700009104A104B10448F0C22CD980EA80FB8096
:1007100044244394512C612C732C4C145D046E04BE
:100720007F0499F60F900F900F900F900F90DF912C
:10073000CF911F910F91FF90EF90DF90CF90BF90DE
:10074000AF909F908F907F906F905F904F903F9071
:100750002F90089581E00E941D0208950E94650275
:100760000E946E00882379F0809160008F5F8093F3
:1007700060000E94AA036091600070E080E090E059
:100780000E94EF02EDCF0E945600882379F08091FD
:1007900060008150809360000E94AA036091600015
:1007A00070E080E090E00E94EF02DACF0E943E000D
:1007B0008823B1F2109260000E94AA03D1CFA1E277
:1007C0001A2EAA1BBB1BFD010DC0AA1FBB1FEE1FCB
:1007D000FF1FA217B307E407F50720F0A21BB30B16
:1007E000E40BF50B661F771F881F991F1A9469F792
:1007F00060957095809590959B01AC01BD01CF01EE
:060800000895F894FFCFFB
:00000001FF
